:020000040800F2
:10000000084C00204102000821410008FF39000887
:100010001D410008A5160008B54D000800000000AD
:10002000000000000000000000000000A90100081E
:100030004D19000800000000ED0100088D4800087F
:100040005B0200085B0200085B0200085B0200081C
:100050005B0200085B0200085B0200085B0200080C
:100060005B0200085B0200085B0200085B020008FC
:100070005B0200085B0200085B0200085B020008EC
:100080005B0200085B0200085B0200085B020008DC
:100090005B0200085B0200085B0200085B020008CC
:1000A0005B0200085B0200085B0200085B020008BC
:1000B0005B0200085B0200085B0200085B020008AC
:1000C0005B0200085B0200085B0200085B0200089C
:1000D0005B0200085B0200085B0200085B0200088C
:1000E0005B0200085B0200085B02000800F002F8F7
:1000F00000F04AF80AA090E8000C82448344AAF178
:100100000107DA4501D100F03FF8AFF2090EBAE875
:100110000F0013F0010F18BFFB1A43F0010318473B
:1001200098AE0000B8AE0000103A24BF78C878C17D
:10013000FAD8520724BF30C830C144BF04680C60ED
:10014000704700000023002400250026103A28BF35
:1001500078C1FBD8520728BF30C148BF0B60704739
:10016000662908F03281642900F0BC8000207047C5
:100170001FB500F0DFFC04000020002107F0B4FBF5
:10018000E0601FBD10B510BD00F0D8FD1146FFF7AF
:10019000EFFF04F0EFFE00F0F6FD03B4FFF7F2FF0F
:1001A00003BC00F039FE0000224B19680868B0E873
:1001B000F00F80F30988BFF36F8F4FF0000080F3DA
:1001C00011884EF00D0E70470000000006480068D0
:1001D000006880F3088862B661B6BFF34F8FBFF343
:1001E0006F8F00DF00BF00BF08ED00E0EFF3098074
:1001F000BFF36F8F0F4B1A6820E9F00F106008B53E
:100200004FF0500080F31188BFF34F8FBFF36F8F13
:1002100006F0AEFA4FF0000080F31188BDE8084008
:1002200019680868B0E8F00F80F30988BFF36F8F92
:10023000704700BF70000020EFF30580704700009A
:100240000948804709480047FEE7FEE7FEE7FEE76A
:10025000FEE7FEE7FEE7FEE7FEE7FEE704480549A6
:10026000054A064B7047000025490008ED000008CC
:1002700008460020084C00200848002008480020BC
:100280000FB41CB5084B06AA7B446946009005983C
:1002900000F00DFC04460020694600F01BFC2046DF
:1002A0001CBC5DF814FB0000490800000FB47CB5CD
:1002B0000C0009AA009001D02044401E084B7B444A
:1002C00069460190089800F0F2FB05461CB1002039
:1002D000694600F0FFFB28467CBC5DF814FB00007B
:1002E0001D0800002DE9F04106460024106875291C
:1002F000314616A510D0AFF30080002802DA404244
:1003000013A507E031688A0701D512A502E0490765
:1003100004D511A5012401E0AFF3008000210A22D9
:1003200006F1240709E0B0FBF2FCB0FBF2F302FB9C
:100330001C00303078541846491C0028F3D123465D
:100340002A463046BDE8F04100F043B90000000005
:100350002D0000002B000000200000002DE9F047D8
:100360004FF0000A89460446C0F820A02046E16804
:100370008847002876D0252806D0D4E90121904767
:10038000206A401C2062F1E7E1682046002588478A
:10039000C4F81CA006460027C4F818A02A2E09D0CD
:1003A000304604F062FD38B304EB8708303EC8F8ED
:1003B000186019E059F8041B204604EB870291618C
:1003C000E1688847012F064618D1E069002820DA45
:1003D00025F020051DE0D8F8180000EB800006EBA2
:1003E00040003038C8F818002046E16888470646C3
:1003F00004F03BFD0028EED1012F0AD02E2E08D1AB
:100400002046E16888477F1C0646022F45F02005FC
:10041000C4DBA069002803DA404245F00105A06171
:10042000E80701D025F01005B6B1A6F14100192862
:1004300002D8203645F400654A46314620462560FC
:100440004D46FFF78DFE58B1012806D0ED1D25F071
:10045000070000F1080989E704E005F1040985E7D0
:1004600030468AE7206ABDE8F087032A40F23080F0
:1004700010F0030C00F0158011F8013BBCF1020FE5
:10048000624498BF11F801CB00F8013B38BF11F866
:10049000013BA2F1040298BF00F801CB38BF00F87D
:1004A000013B11F0030300F02580083AC0F00880FA
:1004B00051F8043B083A51F804CBA0E80810F5E7DE
:1004C000121D5CBF51F8043B40F8043BAFF30080C1
:1004D000D20724BF11F8013B11F801CB48BF11F836
:1004E000012B24BF00F8013B00F801CB48BF00F806
:1004F000012B704710B5203AC0F00B80B1E81850BE
:10050000203AA0E81850B1E81850A0E81850BFF4FD
:10051000F5AF5FEA027C24BFB1E81850A0E818509C
:1005200044BF18C918C0BDE810405FEA827C24BFF0
:1005300051F8043B40F8043B08BF7047D20728BF7E
:1005400031F8023B48BF11F8012B28BF20F8023BCD
:1005500048BF00F8012B704702F0FF0343EA032273
:1005600042EA024200F0C5BA4FF0000200B513465D
:1005700094469646203922BFA0E80C50A0E80C50C3
:10058000B1F12001BFF4F7AF090728BFA0E80C5074
:1005900048BF0CC05DF804EB890028BF40F8042B6D
:1005A00008BF704748BF20F8022B11F0804F18BFDA
:1005B00000F8012B704770477047704710B500F086
:1005C000BDFA006810BD10B5044600F0B7FA04602B
:1005D00010BD2DE9F0470D4699469246044600F1BC
:1005E00024080168880604D5E06921F01001216023
:1005F00000E00120A84201DD471B00E00027A169BF
:100600007A1902EB0900081AA0612078C00602D40A
:100610002046AFF30080002608E0D4E901211AF853
:1006200006009047206A401C761C20624E45F4DB91
:100630002078C0060AD52046AFF3008006E0D4E952
:10064000012130209047206A401C2062381EA7F10B
:100650000107F4DC07E0D4E9012118F80500904710
:10066000206A401C2062281EA5F10105F3DC20460B
:10067000AFF300802078000602D50220BDE8F087A5
:100680000120FBE770472DE9FF4F0C461E464FF057
:10069000FF378BB0D2E90001DDF860800A908A460E
:1006A000C1F30A5505B93D46002108464FF0000048
:1006B000BAF1000F00F4400005DA00EB80004FF4BF
:1006C000400101EA50004FEA9059B9F1010F00DDF5
:1006D000B9460A9850EA4A000ED044F61050A5F2E6
:1006E000FF3545432F14B8F1000F1ED07542291E67
:1006F0001EDDC9F100021CE0B8F1010F4FF000004F
:1007000001D0302103E0F24305E02154401CB04207
:10071000FBDB30460022002121540B99C1F80880F0
:10072000C1E900200FB0BDE8F08FBD1B6D1CDEE7F6
:100730004A4600DA694206A800F08AFA06AB93E856
:10074000070003AB83E8070050460A9900F06BFBF3
:100750008DE80700A0F500501F3800900398002D89
:100760000ADD42F21F014A460844002303A9039010
:10077000684600F0D4FD09E0A0F500504A461F3855
:10078000002303A90390684600F0DEFD8DE8070012
:100790000004000C03D04FF0FF30410800E0104689
:1007A000B8F1000F03D00022009215461EE0751E1E
:1007B00005D400F0C7F9303262556D1EF9D5B34645
:1007C0000122084302D000227F1C04E02078302858
:1007D00001D100227F1E002A099784D01DE0112D2F
:1007E00007DA00F0AFF9303262556D1C50EA0102B1
:1007F000F5D1084302D00098C8B10EE00021681E70
:1008000005E0235C625C63542254401E491C814213
:10081000F7DBAB46A81B401E0990002004F80B0034
:100820000B98099AC0F80880C0E9002B7AE71126D6
:100830004FF0000857E72DE9F04F88460446D21DD7
:1008400022F0070191B0D1E90001CDE90A0104F0DD
:10085000B3FA02460B98C00F01D02D2007E02068A4
:10086000810701D52B2002E0202101EAC000032AE4
:10087000099001D0072A05DB03464146204600F0D7
:10088000A7F90BE12078800601D5E06900E0062099
:10089000B8F1650F814606D0B8F1660F18D0B8F1EF
:1008A000670F70D131E00020B9F1110F009001DB2A
:1008B000112301E009F101030AAA01A90CA8FFF71D
:1008C000E2FEDDE90C70002609F10105834647E0F0
:1008D00001204B4600904FF000470AAA01A90CA83E
:1008E000FFF7D1FEDDE90DB00C995D46002610B989
:1008F00009F101000D18B9EB050003D4C0F1FF3672
:1009000009F10105A5EB09002BE0B9F1010F01DAAE
:100910004FF001090020B9F1110F0090484601DDA8
:10092000112300E003460AAA01A90CA8FFF7ABFEB9
:10093000DDE90C704D4600268346207800070AD476
:10094000AB4500DA5D4601A8012D04DD411911F81F
:10095000011C302907D04F4502DA17F1040F04DAE1
:10096000012082460FE06D1EEEE7002F02DCED1B3A
:100970003E4403E0781CA84200DD7D1CB81B00F15A
:10098000010A4FF000472078000703D4AA4501DB95
:100990004FF0FF3A0021B7F1004F0DF143088DF8F9
:1009A000431024D002202B23002F01DA7F422D2375
:1009B0000A21021EA0F1010000DC5FB197FBF1FCEF
:1009C00097FBF1F201FB1C7C17460CF1300C08F888
:1009D00001CDEEE7A8F1010003702188090501D5DA
:1009E000452100E06521A0F1010800F8011C0998EB
:1009F0000FA9A1EB0807FF1D00B10120411901EB70
:100A0000EA70A1693844081A401EA0612078C00627
:100A100002D42046AFF30080099828B1D4E901211F
:100A20009047206A401C20622078C00622D52046CC
:100A3000AFF300801EE0002E04DBB34502DD01A809
:100A4000805D00E03020D4E901219047206A401CFD
:100A50002062761CAAF101005FEA000A0AD100F0C8
:100A600069F8C0680168405CD4E901219047206AB8
:100A7000401C2062281EA5F10105DCDC07E0D4E95A
:100A8000012118F8010B9047206A401C2062381E93
:100A9000A7F10107F3DC2046AFF30080032011B07B
:100AA00041E6000001694A1C02610878704700B500
:100AB0008FB0CDE901310021059105497944CDE997
:100AC000031011466846FFF749FC0FB000BD000057
:100AD000E5FFFFFF0A6802F8010B0A607047D1E9E1
:100AE00000239A4202D2531C0B60107070474FF0E3
:100AF00000020429C0F0128010F0030C3FF436AD60
:100B0000CCF1040CBCF1020F18BF00F8012BA8BFF8
:100B100020F8022BA1EB0C01FFF728BD5FEAC17C96
:100B200024BF00F8012B00F8012B48BF00F8012B6F
:100B30007047000000487047C445002000487047D7
:100B4000A445002030B5B0F10A024FEA900E71F1D1
:100B500000034EEA817EB0EB0E0061EB91014FEA9B
:100B6000101E4EEA017E10EB0E0041EB11114FEA10
:100B7000102E4EEA016E10EB0E0041EB11214FEAF0
:100B8000104E4EEA014E10EB0E0041EB11414018A1
:100B900041F100014FEAD00040EA41704FEAD10133
:100BA00010EB80054FEA810444EA907444EB0104A1
:100BB0006D1944EB0404521BA3414FF0000348BFDE
:100BC0000A3200D530BD401C41F1000130BD0000AB
:100BD0002DE9F0411F46044603260168072A01F467
:100BE000006004DB08B116A505E016A503E008B116
:100BF00015A500E015A521F010002060A069C01E19
:100C0000A0610FB1401EA0612046AFF300804FB13C
:100C1000D4E9012138469047206A401C2062C01C5C
:100C2000206206E0206AFAE7D4E9012115F8010BF9
:100C30009047761EF8D22046AFF30080BDE8F081E1
:100C40004E414E006E616E00494E4600696E660070
:100C50002DE9F047814616468AB0354878440DC8DC
:100C60008DE80D0032487844801C03AC0DC884E840
:100C70000D0041F69B300844372190FBF1F290FBC8
:100C8000F1F5A5F1800501FB12041B3C02D564427D
:100C9000012000E00020DFF898A080460027FA44F9
:100CA000AAF1BE0A0EE0E0070AD03246684607EB1A
:100CB000470101230AEB810100F046FB8DE80700A4
:100CC00064107F1C002CEED1194F7F44AE3F19E019
:100CD000E80715D007EB04100DF1180A90E80E0094
:100CE0008AE80E00C068F04201D198190890324697
:100CF000012306A903A800F027FB03AB83E8070044
:100D00006D10641C002DE3D14FF00103324669469B
:100D1000B8F1000F03A802D000F001FB01E000F0E1
:100D200013FBC9E90001C9F808200AB0BDE8F08743
:100D300018A3000000487047A44500207546FFF73F
:100D4000F9FFAE4605006946534620F00700854688
:100D500018B020B5FFF782FABDE820404FF000063A
:100D60004FF000074FF000084FF0000B21F0070193
:100D7000AC46ACE8C009ACE8C009ACE8C009ACE8D6
:100D8000C0098D46704710B50446AFF30080204679
:100D9000BDE81040FFF701BA4FF0013C50F8042BBA
:100DA00051F8043B9A4221D1A2EB0C03934313EA7E
:100DB000CC1317D150F8042B51F8043B9A4215D1AB
:100DC000A2EB0C03934313EACC130BD150F8042B82
:100DD00051F8043B9A4209D1A2EB0C03934313EA66
:100DE000CC13DBD04FF00000704700BFD01A01BA1F
:100DF000B1FA81F101F0180122FA01F0CB40C1F102
:100E00002001DBB2C0B2C01A2CFA01F3D11A91430F
:100E100011EAC311E6D1704701491820ABBEFEE7C5
:100E20002600020070475FEA400C08BF91F0000FF7
:100E30004FEA8C234FEAC12243EA51514FEA1C503A
:100E400018BF00F5F0404FEA300018BF41F00041F4
:100E50005FEA6C5C00F02980BCF1FF3F08BF40F006
:100E600080407047130C06BF12044FF0100C4FF077
:100E7000000C130E04BF12020CF1080C130F04BF78
:100E800012010CF1040C930F04BF92000CF1020C40
:100E9000D30F04BF52000CF1010C11464FF00002B9
:100EA000A0F11F00A0EB0C00704711F0004F08BF2D
:100EB000704731F000413FF4D5AF0B0C06BF090479
:100EC0004FF0100C4FF0000C0B0E04BF09020CF198
:100ED000080C0B0F04BF09010CF1040C8B0F04BFAD
:100EE00089000CF1020CCB0F04BF49000CF1010C7E
:100EF000CCF12003A0EB0C0022FA03F302FA0CF26F
:100F000041EA030100F10100704720F07F4C80EAC4
:100F1000030023F07F47ACEB070303F57C5300F09D
:100F2000004003F1FF032DE980494FEA154B09B456
:100F30004FEA144325EA0B4E24EA03480FF2042635
:100F400006EB132749083E785FEA320203FB066787
:100F5000C7F5000707FB06F64FEA54374FEAD646B7
:100F600006F1020607FB066CCCF1005C4FEA1C4759
:100F70002CEA074C07FB06F40CFB06F504EB1546C0
:100F80004FEA961634BF00204FF000404FEAD137A9
:100F900006FB07FC4FEA1C4C0CFB0BF7D21B03FBB8
:100FA0000CF761EB07010CFB0EF7B0EB074072EB9F
:100FB00017420CFB08F734BFA2EB0742B2EB074223
:100FC00061EB17414FEA0C444FEA910706FB07FC1F
:100FD0004FEA1C4C0CFB0BF7B0EBC74072EB5732DF
:100FE00003FB0CF734BFA2EBC742B2EBC74261EB85
:100FF00057310CFB0EF7B0EBC70072EB57720CFBCE
:1010000008F734BFA2EBC702B2EBC70261EB57711E
:10101000039F4FEA816141EA921104EBCC044FEA4D
:10102000D1374FEA826206FB07FC42EA90124FEA90
:1010300080604FEA1C4C0CFB0BF7D21B03FB0CF738
:1010400061EB07010CFB0EF7B0EB074072EB1742A8
:101050000CFB08F734BFA2EB0742B2EB074261EB8F
:1010600017414FEA8C554FEA910704EB9C2406FB8D
:1010700007FC4FEA1C4C0CFB0BF7B0EBC74072EBC4
:10108000573203FB0CF734BFA2EBC742B2EBC742A7
:1010900061EB57310CFB0EF7B0EBC70072EB5772E8
:1010A0000CFB08F734BFA2EBC702B2EBC70261EB3F
:1010B000577115EB4C254FEA816141EA92114FEAD5
:1010C00082624FEAD13742EA901206FB07FC44F1F4
:1010D00000044FEA80604FEA1C4C0CFB0BF7D21B5C
:1010E00003FB0CF761EB07010CFB0EF7B0EB0740BD
:1010F00072EB17420CFB08F734BFA2EB0742B2EBCE
:10110000074261EB174115EB1C154FEA813141EAAB
:1011100092414FEA823242EA90424FEA80304FEAEF
:101120000C7644F1000448EA03434EEA0B484FF0C2
:10113000000EB2EB080C71EB030724BF6246394680
:101140004EEB0E0E4FF0000B0018524149414BEB95
:101150000B0BB2EB080C71EB03077BF1000B24BF08
:10116000624639464EEB0E0E4FF0000B001852410E
:1011700049414BEB0B0BB2EB080C71EB03077BF116
:10118000000B24BF624639464EEB0E0E51EA0207B1
:1011900018BF46F0010616EB0E7655F1000254F129
:1011A000000103D5BDE88901BDE80088BDE88901DB
:1011B000BDE80048B619524141EB0101A3F101031A
:1011C000704780807F7E7D7C7B7A797877767675B4
:1011D0007473727171706F6E6E6D6C6C6B6A6A692C
:1011E0006868676666656464636362616160605FC6
:1011F0005F5E5E5D5D5C5C5B5B5A5A59595858573F
:1012000057565655555554545353525252515150A6
:1012100050504F4F4F4E4E4D4D4D4C4C4C4B4B4BF9
:101220004A4A4A494949484848474747474646463F
:10123000454545444444444343434342424242417A
:101240004141002B9C4630D477002BD01CB54FEA8F
:10125000370703B44FF010004FF01001BAF1000F40
:1012600006D0BCF1000FDCBF40F0080040F00801E0
:101270004FF000000FBCBDE810400BF1010BBBF1BB
:10128000010F08BF5FEA170722BF12F1010211F137
:1012900001014FF0004143F1000300F0004043EA38
:1012A00000007047F9D35708D0E746EA064613F125
:1012B000400F4FEA16461FDD13F1200FDFBF164324
:1012C0000A46002120335B42BED0C3F1200746EA24
:1012D000064602FA07F74FEA164646EA0706C3F142
:1012E000200722FA03F201FA07F721FA03F14FF07F
:1012F000000342EA0702A7E746EA020646EA064674
:101300004FEA164646EA0106BCBF46EA0646360CD8
:101310004FF000034FF000024FF0000194E72DE979
:10132000804C9A46934670B491E8380007C831EA79
:10133000400C48BF34EA430C03D5FFF7E6FDFFF746
:1013400080FFF0BCBDE8008C2DE9804C9A469346A6
:1013500070B491E8380007C810F0804F08BF13F050
:10136000804F03D100F005F8FFF76BFFF0BCBDE83C
:10137000008C20F07F4780EA030023F07F4C07EBCE
:101380000C03A3F57C5300F00040A3F1FE0392F0A0
:10139000000F00F0B38095F0000F00F077802DE98A
:1013A00001494FEA11404FEA144621EA004800FB88
:1013B00006FC24EA064708FB06F607FB08F800FBD4
:1013C00007F718EB06484CEB164C4FEA124B18EB9C
:1013D00007484FEA15464CEB174022EA0B4E0BFB31
:1013E00006FC25EA06470EFB06F607FB0EFE0BFB86
:1013F00007F71EEB064E4CEB164C4FF000061EEBAB
:10140000074E4CEB174B18EB0B0840F1000018EBA4
:101410000E0B58EB000840F100008F1A4FF000014E
:101420003CBFC943661B14BFB5EB040C00213CBF95
:10143000C943F61B4FEA17444EEA8E0E27EA0445CD
:101440004FEA1C4704FB07622CEA074C05FB07F731
:101450000CFB05F604FB0CFC16EB074642EB1742AF
:1014600016EB0C4642EB1C421BEB060658EB020245
:10147000414146EA9E0601D5BDE80189B6195241AF
:1014800041EB0101A3F10103BDE801894FEA1445D5
:101490004FEA114724EA054621EA074C05FB07F409
:1014A00006FB07F70CFB06F105FB0CFC11EB0741F3
:1014B00044EB17444FEA124711EB0C4144EB1C4438
:1014C00022EA074C05FB07F206FB07F70CFB06F6C2
:1014D00005FB0CFC16EB074642EB174216EB0C46DD
:1014E00042EB1C456A1854F1000148BF7047B61919
:1014F000524141EB0101A3F10103704795F0000F48
:1015000037D04FEA11424FEA144721EA024624EA53
:10151000074C02FB07F106FB07F70CFB06F402FB86
:101520000CFC14EB074441EB17414FEA154714EB51
:101530000C4441EB1C4125EA074C02FB07F506FB76
:1015400007F70CFB06F602FB0CFC16EB074645EB17
:10155000174516EB0C4645EB1C42121951F10001E0
:1015600048BF7047B619524141EB0101A3F1010395
:1015700070474FEA14454FEA114724EA054621EA2D
:10158000074C05FB07F106FB07F70CFB06F24FF0D3
:10159000000605FB0CFC12EB074241EB174112EB76
:1015A0000C4251EB1C4148BF7047921841EB0101BE
:1015B000A3F10103704770B50446002520688068D8
:1015C00000F0010018B32068806820F00100216855
:1015D000886000F077FE054613E000F073FE401BC4
:1015E00002280ED92068806800F0010048B1A06A86
:1015F00040F01000A062E06A40F00100E0620120CB
:1016000070BD2068806800F001000028E5D100204E
:10161000F6E7000038B50446002500200090206859
:10162000806800F0010078BB2068806840F001000D
:1016300021688860194800681949B0FBF1F00090F2
:1016400002E00098401E009000980028F9D100F0B8
:1016500039FE054619E000F035FE401B022814D97A
:101660002068806800F0010078B9A06A40F010009E
:10167000A062E06A40F00100E06200BF002084F850
:10168000240000BF012038BD05E02068806800F01C
:1016900001000028DFD00020F5E700006C000020EA
:1016A00040420F0000BFFEE72DE9F04700F0EAF8E6
:1016B000002868D000F08CF83749087000F088F8EE
:1016C0003649087000F084F83549087000F080F859
:1016D0003449087000F07CF8334908702E480078CF
:1016E0002E49097808442E49097808442D4909787B
:1016F00008442D49097888423ED12A48007806F0EE
:1017000093FA07460022294B06F036F9054606F003
:1017100001F904462248007806F092FC81462146F1
:1017200006F016FB2249086022492148006806F0AD
:10173000CFFC0546204906F07FFB04464FF084416C
:1017400006F006FB1D4908601448007806F06CFAA4
:1017500007460022154B06F00FF9054606F0DAF8A9
:1017600004460D48007806F06BFC8146214606F0E1
:10177000EFFA134908600DE012480D49086012485D
:101780000F49086006E01148094908604FF04040E1
:101790000B490860BDE8F087000000200100002030
:1017A000020000200300002004000020000024406C
:1017B00008000020000010410000A0400C000020A4
:1017C000100000200000C8C2000080BF000048C315
:1017D00070B5002500244AE000F074FD2649086039
:1017E00000F070FD2549086003E000F06BFD23491F
:1017F00008604FF40071224800F056FD30B91E48D1
:101800000068801C1D4909688842EED8282003F032
:101810005BFC4FF400711A4800F046FD28B9C4F192
:10182000070101208840854305E0C4F1070101203C
:1018300088402843C5B200F045FD0F49086000F01C
:1018400041FD0E49086003E000F03CFD0B490860D3
:101850004FF400710A4800F027FD30B106480068D7
:10186000801C064909688842EED8601CC4B2082C66
:10187000B2DB284670BD00001400002018000020D4
:10188000000C01401FB50024002000900190029040
:1018900003904FF40070009001200190022003900B
:1018A000002002906946264800F06EFB00224FF4AB
:1018B0000071234800F000FD142000F051FB0122CC
:1018C00051021F4800F0F8FC1E2003F0FDFB002031
:1018D0000190012002906946194800F055FB28202C
:1018E00003F0F2FB4FF40071154800F0DDFC48B93D
:1018F000502003F0E9FB4FF40071114800F0D4FCD4
:1019000000B1012400F0DEFC0E49086000F0DAFCB2
:101910000D49086003E000F0D5FC0B4908604FF466
:101920000071074800F0C0FC30B106480068801C18
:10193000054909688842EED8204604B010BD000071
:10194000000C01401400002018000020704772B6FF
:1019500000BFFEE738B5024600230020009000BF1C
:1019600092F82400012801D1022038BD012082F81C
:10197000240000BF4868072812D21068406B0C7919
:10198000641E04EB84051F24AC40A0430D796D1E3A
:1019900005EB85050C68AC4020431468606327E0C4
:1019A00048680D2812D21068006B0C79E41F04EB14
:1019B00084051F24AC40A0430D79ED1F05EB850580
:1019C0000C68AC4020431468206311E01068C06AC2
:1019D0000C790D3C04EB84051F24AC40A0430D7929
:1019E0000D3D05EB85050C68AC4020431468E062B2
:1019F00008680A2812D31068C0680C780A3C04EB07
:101A000044050724AC40A0430D780A3D05EB45058D
:101A10008C68AC4020431468E0600FE010680069F7
:101A20000C7804EB44050724AC40A0430D7805EB8B
:101A300045058C68AC402043146820610868102874
:101A400002D00868112827D1174C1068A0421ED177
:101A50001068806800F40000F0B91068806840F4F5
:101A600000001468A0600868102815D10F480068AD
:101A70000F4CB0FBF4F000EB80004000009002E05F
:101A80000098401E009000980028F9D104E0906A68
:101A900040F020009062012300BF002082F8240063
:101AA00000BF184661E70000002401406C000020E0
:101AB00040420F0001460868C06C70472DE9F041B4
:101AC0000446002700250026A84614B90120BDE8D9
:101AD000F081A06810B1207D00B100BFA06A30B9CC
:101AE0000020E06284F82400204600F089F82046B7
:101AF000FFF761FD0746A06A00F01000002873D1CF
:101B0000002F71D1A06A20F4885040F00200A0623A
:101B1000E16960680843217B40EA41000643A06810
:101B2000B0F5807F02D0A068012802D14FF4807008
:101B300000E000200543207D012811D1207B38B929
:101B4000A069401E4FF4006141EA4030054307E0C0
:101B5000A06A40F02000A062E06A40F00100E0626C
:101B60002068406820F46940284321684860206864
:101B7000806821490840304321688860A068B0F53A
:101B8000807F02D0A068012802D14FF4807000E06D
:101B90000020B0F5807F03D1208A401E4FEA005814
:101BA0002068C06A20F4700040EA08002168C8621A
:101BB0002068806811490840B04208D10020E062E6
:101BC000A06A20F0020040F00100A06211E0A06ACB
:101BD00020F0020040F01000A062E06A40F0010036
:101BE000E062012705E0FFE7A06A40F01000A06274
:101BF000012738466BE70000FDF7E1FFFE0E1FFFEF
:101C000010B586B004460020029003900490059021
:101C100014492068884222D100BF1348806940F4EB
:101C20000070114988610846806900F400700190D5
:101C300000BF00BF00BF0846806940F00400886113
:101C40000846806900F00400019000BF00BF012039
:101C500002900320039002A9044800F095F906B011
:101C600010BD0000002401400010024000080140A7
:101C7000F8B504460D46002600200090002700F02D
:101C800021FB06462068806800F4807050B1A06A8D
:101C900040F02000A06200BF002084F8240000BFB4
:101CA0000120F8BD2068406800F4807020BB2068E7
:101CB000C06A00F47000F8B917E0681CA8B125B13B
:101CC00000F000FB801BA8420FD92068006800F0DC
:101CD000020050B9A06A40F00400A06200BF0020DA
:101CE00084F8240000BF0320DBE72068006800F0D0
:101CF00002000028E1D053E0022000F067FE3849DE
:101D00000968B1FBF0F021680969364A114091B9C0
:101D10002168C9689211114069B921680969324A7C
:101D2000114031B92168C9689211114009B91421D3
:101D300017E0292115E0216809692B4A114021B9D2
:101D40002168C9689211114041B121680969274A87
:101D5000114029B92168C968114009B9542100E02E
:101D6000FC2100FB01F718E0681C98B125B100F0D8
:101D7000A9FA801BA8420DD90098B8420AD2A06ADD
:101D800040F00400A06200BF002084F8240000BFDF
:101D9000032086E70098401C00900098B842E3D3E7
:101DA0006FF0120021680860A06A40F40070A06221
:101DB0002068806800F46020B0F5602F0DD1207B92
:101DC00058B9A06A20F48070A062A06A00F4805024
:101DD00018B9A06A40F00100A062002061E700008D
:101DE0006C00002024499224922449124992240034
:101DF00070B50446002500BF94F82400012801D1E5
:101E0000022070BD012084F8240000BF2046FFF7A7
:101E100001FC0546002D77D1A06A40F201218843DC
:101E200040F48070A0623C492068884208D13B4859
:101E3000006800F4702008B9012002E0002000E0F2
:101E4000012078B1A06A20F48010A0622068406868
:101E500000F4806000B3A06A20F4005040F4805089
:101E6000A06219E0A06A40F48010A0622B49091F0B
:101E70002068884203D028492068884204D1274836
:101E8000006800F4806000E0002028B1A06A20F41F
:101E9000005040F48050A062A06A00F4805020B14D
:101EA000E06A20F00600E06201E00020E06200BF8E
:101EB000002084F8240000BFC01E2168086020684C
:101EC000806800F46020B0F5602F16D112492068B8
:101ED000884208D11148006800F4702008B9012038
:101EE00002E0002000E0012038B12068806840F462
:101EF000A000216888600CE006E02068806840F45B
:101F000080102168886004E000BF002084F824006D
:101F100000BF284675E70000002801400424014066
:101F200070B50446002500BF94F82400012801D1B3
:101F3000022070BD012084F8240000BF2046FFF776
:101F40003AFB05462DB9A06A20F4885040F0010004
:101F5000A06200BF002084F8240000BF2846E8E704
:101F600070B5044600F0AEF906462546681C10B16F
:101F700004480078054400BF00F0A4F9801BA84283
:101F8000FAD370BD680000202DE9F847034600220F
:101F900094466EE14FF0010808FA02F4D1F800808F
:101FA00008EA0400A0427DD1DFF8DCA2D1F8048069
:101FB000A8EB0A09D0453AD014DCB8F1030F50D091
:101FC00009DCB8F1000F31D0B8F1010F1CD0B8F125
:101FD000020F49D120E0B8F1110F18D0B8F1120F5B
:101FE00042D11EE0B9F5881F25D006DCB9F5803F47
:101FF00020D0B9F5801F37D11AE0B9F5001F18D0ED
:10200000B9F5041F30D117E0D1F80CC02DE0D1F89C
:102010000C8008F1040C28E0D1F80C8008F1080CC1
:1020200023E0D1F80C8008F10C0C1EE000BF00BFCB
:1020300000BF00BF00BF00BFD1F80880B8F1000F9B
:1020400002D14FF0040C0BE0D1F80880B8F1010F79
:1020500003D14FF0080C1C6102E04FF0080C5C61EA
:1020600003E04FF0000C00E000BF00BFFF2801D8E4
:10207000984601E003F104084646FF2802D84FEADB
:10208000820803E0A2F108084FEA88084746D6F81C
:1020900000804FF00F0909FA07F928EA09080CFA3D
:1020A00007F900E088E048EA0908C6F80080D1F89E
:1020B000048008F08058B8F1805F7DD100BFDFF860
:1020C000CC81D8F8188048F00108DFF8C091C9F831
:1020D0001880C846D8F8188008F00108CDF80080AC
:1020E00000BF00BF4FEAB9384FEA920958F82950AB
:1020F0004FEA82784FEA18794FF00F0808FA09F88A
:1021000025EA0805DFF88881434502D14FF0000831
:1021100016E0DFF88081434502D14FF001080FE05F
:10212000DFF87481434502D14FF0020808E0DFF880
:102130006C81434502D14FF0030801E04FF00408E1
:102140004FEA82794FEA197908FA09F848EA050551
:10215000DFF84C814FEA920948F82950D1F8048001
:1021600008F48018B8F5801F0AD1DFF83881D8F854
:10217000008048EA0008DFF82C91C9F8008009E0E7
:10218000DFF82081D8F8008028EA0008DFF81491F1
:10219000C9F80080D1F8048008F40018B8F5001FD1
:1021A00010D1DFF8008108F10408D8F8008048EA6F
:1021B0000008DFF8F09000E05AE009F10409C9F8DE
:1021C00000800DE0DFF8DC8008F10408D8F800801A
:1021D00028EA0008DFF8CC9009F10409C9F800806A
:1021E000D1F8048008F40038B8F5003F0ED1DFF8CC
:1021F000B480A8F10408D8F8008048EA0008DFF8A5
:10220000A490A9F10409C9F800800DE0DFF89480DA
:10221000A8F10408D8F8008028EA0008DFF88490C4
:10222000A9F10409C9F80080D1F8048008F48038C5
:10223000B8F5803F0ED1DFF86C80A8F10808D8F817
:10224000008048EA0008DFF85C90A9F10809C9F8A5
:1022500000800DE0DFF84C80A8F10808D8F8008075
:1022600028EA0008DFF83C90A9F10809C9F80080C5
:10227000521CD1F8008028FA02F8B8F1000F7FF460
:1022800089AEBDE8F8870000000011100010024080
:1022900000080140000C0140001001400014014002
:1022A0000800014008040140024693680B400BB14E
:1022B000012000E0002070470AB1016101E00B0439
:1022C000036170470148006870470000600000200B
:1022D00070B504460CB9012070BD94F83D0028B9D2
:1022E000002084F83C00204600F06EFA242084F898
:1022F0003D002068006820F0010021680860206827
:10230000006840F40040216808602068006820F4FC
:1023100000402168086000F03BFD05465C496068AC
:10232000884206D85B48854201D2012007E00020A0
:1023300005E05948854201D2012000E00020012833
:1023400000D1C9E75548B5FBF0F62068406820F099
:102350003F003043216848604D496068884201D899
:10236000701C07E04FF4967070434FF47A71B0FB25
:10237000F1F0401C2168096A21F03F0108432168FF
:10238000086243496068884214D8681E6168490041
:10239000B0FBF1F0401CC0F30B00042801D2042074
:1023A0003DE0681E61684900B0FBF1F0401CC0F3DD
:1023B0000B0034E0A06838B9681E616801EB410188
:1023C000B0FBF1F0401C0AE0681E616801EBC1023D
:1023D00002EB0111B0FBF1F0401C40F48040C0F36F
:1023E0000B0008B901201AE0A06848B9681E6168AE
:1023F00001EB4101B0FBF1F0401CC0F30B000CE01D
:10240000681E616801EBC10202EB0111B0FBF1F043
:10241000401CC0F30B0040F4804040F400402168B1
:10242000C9694CF6FF72914308432168C861D4E939
:10243000070108432168096821F0C00108432168A9
:102440000860D4E9031008432168896848F2FF3224
:102450009143084321688860D4E905010843216855
:10246000C96821F0FF0108432168C860206800683E
:1024700040F001002168086000202064202084F8DA
:102480003D000020206384F83E0000BF24E70000E8
:10249000A086010080841E0000093D0040420F001C
:1024A0002DE9F84F04460F4690461E46FFF70AFFF7
:1024B00005464FF0000994F83D0020287ED11923ED
:1024C000012263492046009501F04DFB10B1022026
:1024D000BDE8F88F00BF94F83C00012801D102202C
:1024E000F6E7012084F83C0000BF2068006800F097
:1024F000010028B92068006840F0010021680860E8
:102500002068006820F4006021680860242084F8B6
:102510003D00002020644F48E06200BF2068006852
:1025200040F4807021680860334600224FF00111AA
:102530002046009501F017FB58B12068006800F4B0
:102540008070B0F5807F02D14FF4007020640320CA
:10255000BEE707F0FE0021680861FFF7B3FE0546FD
:1025600020684069C0F3400A20684069C0F3802BAE
:1025700010E0FFF7A7FE401BB04200D816B9A0201C
:1025800084F83D0020684069C0F3400A2068406933
:10259000C0F3802B94F83D00A02805D0BAF1000FBD
:1025A00002D1BBF1000FE4D0202084F83D00206868
:1025B0004069C0F3400028B3206800E045E00068AF
:1025C00040F400702168086000BF0020009020687F
:1025D0004069009020688069009000BF00BF192307
:1025E00001221B492046009501F0BDFA08B10120E7
:1025F0006EE7202084F83D0000BF002084F83C00F6
:1026000000BF65E72068006840F40070216808603A
:102610006FF4806021684861192301220C4920462B
:10262000009501F0A0FA08B1012051E709F1010974
:10263000C145FFF473AF202084F83D0000BF0020A7
:1026400084F83C0000BF012042E7022040E7000080
:10265000020010000000FFFF2DE9F8430446894600
:1026600016461F46DDF82080FFF72CFE054694F83D
:102670003D0020287ED11923012251492046009592
:1026800001F071FA10B10220BDE8F88300BF94F8A0
:102690003C00012801D10220F6E7012084F83C002B
:1026A00000BF2068006800F0010028B920680068B9
:1026B00040F00100216808602068006820F4006094
:1026C00021680860212084F83D00102084F83E0035
:1026D0000020206466626785608D20853948E0624D
:1026E0002B4642464946204601F0AAF908B101208E
:1026F000CAE700BF00200090206840690090206871
:102700008069009000BF00BF44E02A464146204651
:1027100001F005FB50B1206C042805D12068006849
:1027200040F40070216808600120ADE7606A00781D
:1027300021680861606A401C6062608D401E60858F
:10274000208D401E208520684069C0F3800070B154
:10275000208D60B1606A007821680861606A401C61
:102760006062608D401E6085208D401E20852A4657
:10277000414600E022E0204601F0C2F950B1206C51
:10278000042805D12068006840F4007021680860C2
:10279000012079E7208D0028B7D12068006840F437
:1027A000007021680860202084F83D00002084F833
:1027B0003E0000BF84F83C0000BF65E7022063E7ED
:1027C000020010000000FFFF10B586B00446002094
:1027D000029003900490059015492068884225D105
:1027E00000BF1448806940F008001249886108461B
:1027F000806900F00800019000BF00BFC020029077
:10280000122003900320059002A90B48FFF7BCFBA0
:1028100000BF0848C06940F400100649C861084676
:10282000C06900F40010019000BF00BF06B010BDE9
:102830000054004000100240000C014003480068B2
:102840000349097808440149086070476000002086
:102850006800002010B50848006840F010000649E4
:102860000860032000F09EF80F2000F007F800F049
:102870002BF8002010BD00000020024070B5044677
:102880000E4800784FF47A71B1FBF0F00C490968FA
:10289000B1FBF0F5284600F005FD08B1012070BD40
:1028A000102C07D200222146501E00F03DF80548AA
:1028B000046001E00120F2E70020F0E7680000205A
:1028C0006C0000206400002008B500BF1448806937
:1028D00040F00100124988610846806900F001005B
:1028E000009000BF00BF00BF0846C06940F08050A4
:1028F000C8610846C06900F08050009000BF00BF6A
:1029000000220F21901E00F00FF800BF0549486813
:1029100020F0E06040F00070486000BF08BD00009B
:1029200000100240000001402DE9F05F80460D4696
:102930001646002702F068FA074639462A4633460B
:1029400001F00700C0F1070ABAF1040F02D94FF0F5
:10295000040A01E0C0F1070AD14600F1040ABAF105
:10296000070F02D24FF0000A01E0A0F1030AD4469B
:102970004FF0010A0AFA09FAAAF1010A0AEA020A60
:102980000AFA0CFA4FF0010B0BFA0CFBABF1010B3E
:102990000BEA030B4AEA0B042146404602F03CFADC
:1029A000BDE8F09F00BF00F00702064B19684FF624
:1029B000FF031940044B0B4343EA0221014B19600A
:1029C00000BF70470CED00E00000FA052DE9F0476C
:1029D00006464FF00008002500270024A146012EDE
:1029E00031D0022E56D0102E5FD132484468006894
:1029F00000F0807008B33048C4F38341475C04F4AE
:102A0000803078B12B484068C0F340402B4911F822
:102A1000008004F4803040B12948B0FBF8F000FB9E
:102A200007F502E0274807FB00F52248406800F45C
:102A30008000B0F5800F01D1A94603E068000321B2
:102A4000B0FBF1F932E01B48046A04F44070B0F5C1
:102A5000807F05D104F0020010B14FF4004918E066
:102A600004F44070B0F5007F07D11248406A00F0CE
:102A7000020010B149F640490BE004F44070B0F593
:102A8000407F06D10B48006800F4003008B14FF2D7
:102A900024490BE000F08CF906494968C1F3813103
:102AA000491C4900B0FBF1F900E000BF00BF4846F7
:102AB000BDE8F0870010024092AD0008A2AD00080A
:102AC00000127A0000093D00F8B5044600260025F2
:102AD000207800F0010000286BD000274348C0692F
:102AE00000F0805070B900BF4048C06940F080508D
:102AF0003E49C8610846C06900F08050009000BFA0
:102B000000BF01273A48006800F48070B0B9384827
:102B1000006840F4807036490860FFF7D3FB064632
:102B200006E0FFF7CFFB801B642801D90320F8BD26
:102B30002F48006800F480700028F2D02B48006A0B
:102B400000F440752DB3A08800F44070A84220D056
:102B50002648006A20F440750120264908600020BC
:102B600008602248056205F0010090B1FFF7AAFB5A
:102B7000064608E0FFF7A6FB801B41F28831884239
:102B800001D90320D3E71948006A00F002000028A9
:102B9000F0D01648006A20F4407061680843134979
:102BA0000862012F04D10846C06920F08050C86136
:102BB00000BF207800F00200022807D10B484068CF
:102BC00020F44040A168084308494860207800F09C
:102BD0001000102807D10548406820F48000E16803
:102BE0000843024948600020A1E7000000100240AD
:102BF000007000404004424270B504460D460CB9D6
:102C0000012070BD5A48006800F00700A8420ED2AB
:102C10005748006820F007002843554908600846D7
:102C2000006800F00700A84201D00120E9E7207801
:102C300000F0020002281DD1207800F004000428D2
:102C400005D14C48406840F4E0604A49486020782B
:102C500000F00800082805D14648406840F460505C
:102C6000444948604348406820F0F000A1680843A8
:102C700040494860207800F0010078B3606801287E
:102C800006D13C48006800F4003090B90120B8E754
:102C90006068022806D13748006800F0007040B92B
:102CA0000120AEE73348006800F0020008B90120B7
:102CB000A7E73048406820F00300616808432D49C9
:102CC0004860FFF7FFFA064609E0FFF7FBFA801BB2
:102CD00041F28831884202D9032092E707E0254873
:102CE000406800F00C006168B0EB810FEDD1204826
:102CF000006800F00700A8420ED91D48006820F0C7
:102D0000070028431A4908600846006800F00700D9
:102D1000A84201D0012074E7207800F004000428C4
:102D200007D11448406820F4E060E1680843114985
:102D30004860207800F00800082808D10D48406855
:102D400020F46050216940EAC1000A49486000F05F
:102D50003FF808494968C1F30311074A515CC8406C
:102D60000649086006480068FFF788FD002048E72C
:102D70000020024000100240A4AD00086C000020BA
:102D80006400002001480068704700006C000020CB
:102D900000B5FFF7F7FF04494968C1F30221034A70
:102DA000515CC84000BD000000100240B4AD0008F6
:102DB00000B5FFF7E7FF04494968C1F3C221034AA0
:102DC000515CC84000BD000000100240B4AD0008D6
:102DD00070B500210022002400230020134D6968F3
:102DE00001F00C05F5B1042D02D0082D19D101E038
:102DF0000F4819E00F4DC1F38346AB5D01F48035F8
:102E000055B10A4D6D68C5F340450B4E725D084DD6
:102E10005D43B5FBF2F402E0084D03FB05F42046E8
:102E200002E000BF024800BF00BF70BD00100240BA
:102E300000127A0080AD000890AD000800093D0046
:102E4000F8B504460CB90120F8BD207800F0010067
:102E5000002878D0F848406800F00C0004280CD016
:102E6000F548406800F00C00082811D1F24840688D
:102E700000F48030B0F5803F0AD1EF48006800F4DC
:102E8000003000285FD0606800285CD10120DBE7BB
:102E900000BF6068B0F5803F06D1E748006840F4A5
:102EA0008030E549086028E0606858B9E248006869
:102EB00020F48030E04908600846006820F4802053
:102EC00008601AE06068B0F5A02F0BD1DA480068FE
:102ED00040F48020D84908600846006840F48030FB
:102EE00008600AE0D448006820F48030D2490860C5
:102EF0000846006820F48020086000BF606888B140
:102F0000FFF7E0F9054606E0FFF7DCF9401B64280F
:102F100001D9032098E7C848006800F40030002871
:102F2000F2D010E0FFF7CEF9054606E0FFF7CAF948
:102F3000401B642801D9032086E7BF48006800F4DD
:102F400000300028F2D1207800F00200022857D18A
:102F5000B948406800F00C0050B1B748406800F034
:102F60000C00082818D1B448406800F4803098B9A3
:102F7000B148006800F0020020B12069012801D0AA
:102F8000012061E7AC48006820F0F800616940EA80
:102F9000C100A949086033E02069E8B10120A749D0
:102FA0000860FFF78FF9054606E0FFF78BF9401B35
:102FB000022801D9032047E79F48006800F002007B
:102FC0000028F2D09C48006820F0F800616940EACF
:102FD000C1009949086013E0002098490860FFF794
:102FE00071F9054606E0FFF76DF9401B022801D98B
:102FF000032029E79048006800F002000028F2D181
:10300000207800F0080008282DD1A069B8B101206F
:103010008B490860FFF756F9054606E0FFF752F9BD
:10302000401B022801D903200EE78348406A00F0C4
:1030300002000028F2D0012001F074F813E0002013
:103040007F490860FFF73EF9054606E0FFF73AF9C9
:10305000401B022801D90320F6E67748406A00F0B9
:1030600002000028F2D1207800F00400042873D177
:1030700000277148C06900F0805070B900BF6E48E9
:10308000C06940F080506C49C8610846C06900F0D2
:103090008050009000BF00BF01276A48006800F41C
:1030A0008070B0B96748006840F480706549086076
:1030B000FFF708F9054606E0FFF704F9401B64280E
:1030C00001D90320C0E65F48006800F48070002842
:1030D000F2D000BFE068012806D15748006A40F0EE
:1030E00001005549086227E0E06858B95248006A73
:1030F00020F00100504908620846006A20F00400F0
:10310000086219E0E06805280BD14B48006A40F0DE
:103110000400494908620846006A40F0010008625C
:103120000AE04548006A20F0010043490862084669
:10313000006A20F00400086200BFE068A0B1FFF759
:10314000C1F8054609E0FFF7BDF8401B41F28831A0
:10315000884202D9032077E622E03748006A00F06F
:1031600002000028EFD012E0FFF7ACF8054608E0B7
:10317000FFF7A8F8401B41F28831884201D90320AB
:1031800062E62D48006A00F002000028F0D1012F0D
:1031900005D12948C06920F080502749C86100BF87
:1031A000E069C8B32448406800F00C00082860D0EB
:1031B000E069022848D1002020490866FFF782F81C
:1031C000054606E0FFF77EF8401B022801D90320E0
:1031D0003AE61948006800F000700028F2D1206A31
:1031E000B0F5803F07D11448406820F40030A16852
:1031F000084311494860D4E9080108430E49496869
:1032000021F4741108430C49486001200B490866F9
:10321000FFF758F8054607E03DE0FFF753F8401B7D
:10322000022801D903200FE60348006800F000706F
:103230000028F2D02FE000000010024000004242BF
:103240008004424200700040002014490866FFF7E5
:1032500039F8054606E0FFF735F8401B022801D98A
:103260000320F1E50E48006800F000700028F2D15C
:1032700011E0E069012800D1E6E50948466806F456
:103280008031206A814204D106F47011606A814263
:1032900001D00120D8E50020D6E500000000424220
:1032A0000010024070B504462546681EB0F1807FCC
:1032B00001D301200FE0681E4FF0E02148610F218B
:1032C0004FF0FF3001F0A8FD00204FF0E0218861B1
:1032D00007200861002070BD30B502460B4600BFD4
:1032E00092F83C00012801D1022030BD012082F873
:1032F0003C0000BF022082F83D001068446810685E
:10330000816824F070041868044310684460104D0C
:103310001068A8420BD01068B0F1804F07D00D4D57
:103320001068A84203D00C4D1068A84205D121F0C6
:1033300080015868014310688160012082F83D00D7
:1033400000BF002082F83C0000BF00BFCDE70000B6
:10335000002C0140000400400008004010B5044665
:103360000CB9012010BD94F83D0028B9002084F864
:103370003C00204600F026F8022084F83D00211D84
:10338000206801F0D1FA012084F8460000BF84F8DB
:103390003E0001213F2001554020015541200155AB
:1033A00000BF00BF012084F84200432001554420A3
:1033B00001554520015500BF012084F83D00002043
:1033C000D0E7000008B5124A016891420DD100BF54
:1033D0001049896941F400610E4A91611146896979
:1033E00001F40061009100BF11E00168B1F1804F6C
:1033F0000DD100BF0749C96941F00101054AD161FA
:103400001146C96901F00101009100BF00BF08BD6C
:10341000002C014000100240014691F83D000128B7
:1034200001D001207047022081F83D00124B08684E
:1034300098420BD00868B0F1804F07D00F4B086856
:10344000984203D00E4B086898420CD108688068F7
:1034500000F00702062A0CD00868006840F001005E
:103460000B68186005E00868006840F001000B6810
:1034700018600020D6E70000002C01400004004046
:10348000000800402DE9F04104460D46002700BF2A
:1034900094F83C00012802D10220BDE8F08101200F
:1034A00084F83C0000BF022084F83D002068866854
:1034B00026F0770626F47F46206886602868502824
:1034C00033D00CDC202850D004DC00284BD010284E
:1034D00051D149E0302849D040284CD139E060280A
:1034E0002DD0702807D0B0F5805F03D0B0F5005F15
:1034F00041D10DE041E0D5E902136A68206801F08E
:1035000066FA2068866846F077062068866034E0B0
:10351000D5E902136A68206801F059FA20688068CA
:1035200040F480402168886027E0EA686968206884
:1035300001F01EFB5021206801F054FA1DE0EA68FA
:103540006968206801F027FB6021206801F04AFAD1
:1035500013E0EA686968206801F00AFB40212068EE
:1035600001F040FA09E000BF00BF00BF29682068F1
:1035700001F038FA01E0012700BF00BF012084F804
:103580003D0000BF002084F83C0000BF384684E7BF
:1035900010B586B004460020029003900490059078
:1035A0002068B0F1804F22D100BF1248806940F0FE
:1035B0000400104988610846806900F00400019009
:1035C00000BF00BF4FF4004002900220039005901E
:1035D00002A90948FEF7D8FC00BF0849486820F452
:1035E000407040F0E06040F48070486000BF06B07A
:1035F00010BD000000100240000801400000014022
:103600002DE9F04104460D461646002700BF94F808
:103610003C00012802D10220BDE8F081012084F89D
:103620003C0000BF36B1042E1BD0082E31D00C2E2A
:103630005ED145E02946206801F0DEF92068806906
:1036400040F00800216888612068806920F004004B
:103650002168886120688069296908432168886138
:1036600048E02946206801F0F7F92068806940F4B5
:103670000060216888612068806920F4806021688A
:10368000886120688069296940EA01202168886191
:1036900030E02946206801F013FA2068C06940F044
:1036A00008002168C8612068C06920F00400216812
:1036B000C8612068C069296908432168C86119E0A8
:1036C0002946206801F030FA2068C06940F40060A3
:1036D0002168C8612068C06920F480602168C861E1
:1036E0002068C069296940EA01202168C86101E0B9
:1036F000012700BF00BF00BF002084F83C0000BFCE
:10370000384689E710B504460CB9012010BD94F87D
:103710003D0028B9002084F83C00204600F025F840
:10372000022084F83D00211D206801F0FDF80120F1
:1037300084F8460000BF84F83E0001213F20015577
:10374000402001554120015500BF00BF012084F8F1
:10375000420043200155442001554520015500BF3A
:10376000012084F83D000020D0E7704770B5044682
:103770000D4615B994F83E000BE0042D02D13F2010
:10378000005D06E0082D02D14020005D01E04120EF
:10379000005D012801D0012070BD1DB9022084F810
:1037A0003E000EE0042D03D102213F20015508E028
:1037B000082D03D102214020015502E002214120C1
:1037C000015501222946206801F0F0F819492068C6
:1037D000884201D1012000E0002028B12068406C1F
:1037E00040F40040216848641249206888420BD0A8
:1037F0002068B0F1804F07D00F492068884203D07D
:103800000E49206888420CD12068806800F00706C5
:10381000062E0CD02068006840F001002168086086
:1038200005E02068006840F0010021680860002081
:10383000B2E70000002C01400004004000080040F6
:1038400010B504460CB9012010BDA06900B100E01C
:1038500000BF94F8410028B9002084F840002046B9
:1038600000F02AF8242084F841002068C06820F481
:1038700000502168C860204601F0D8F9206800692E
:1038800020F49040216808612068406920F02A00F7
:10389000216848612068C06840F400502168C86011
:1038A00000206064202084F8410084F84200002059
:1038B000606300BFC8E7000010B586B00446002072
:1038C00002900390049005901A49206888422ED1F6
:1038D00000BF1948806940F4804017498861084654
:1038E000806900F48040019000BF00BF00BF08461F
:1038F000806940F0040088610846806900F0040097
:10390000019000BF00BF48150290022003900320E1
:10391000059002A90948FEF737FB4FF4806002903A
:1039200000200390049002A90448FEF72DFB06B086
:1039300010BD0000003801400010024000080140A6
:103940002DE9F84F04460E46174699464FF0000AF7
:1039500094F84100202850D106B117B90120BDE8E4
:10396000F88F00206064212084F84100FEF7AAFC53
:103970008246A784E784A068B0F5805F04D12069FF
:1039800010B90025B04602E035464FF000081EE0B1
:103990005346002280212046CDF8009001F0C4F962
:1039A00020B1202084F841000320D8E745B9B8F8B9
:1039B0000000C0F308002168486008F1020803E035
:1039C0002878216848606D1CE08C401EE084E08C03
:1039D0000028DDD15346002240212046CDF800903A
:1039E00001F0A2F920B1202084F841000320B6E7BD
:1039F000202084F841000020B1E70220AFE700BF9B
:103A0000FEE7014608684069C0F38020B0B16FF45A
:103A100080600A68506100200863202081F83D0022
:103A2000002081F83E00086C40F00400086400BFEC
:103A3000002081F83C0000BF012070470020FCE717
:103A40002DE9F84304460D4617469846E66A082EC7
:103A500004D0012E02D016F5803F06D12068006800
:103A600040F480702168086008E0206B122805D1BE
:103A70002068006840F48070216808603B4600229E
:103A80004FF001112046CDF8008000F06CF860B1D5
:103A90002068006800F48070B0F5807F02D14FF498
:103AA000007020640320BDE8F8832069B0F5804FE2
:103AB00004D105F0FE002168086112E005F44070B1
:103AC000F02141EAE0102168086143463A460B497B
:103AD000204600F0A7F808B10120E4E7E8B2216829
:103AE000086143463A460549891F204600F09AF886
:103AF00008B10120D7E70020D5E700000800010049
:103B000070B504460D46164625E02046FFF779FFBE
:103B100008B1012070BD681CE8B1FEF7D3FB801B23
:103B2000A84200D8BDB920684069C0F3800090B9B0
:103B300000202063202084F83D00002084F83E000F
:103B4000206C40F02000206400BF002084F83C007E
:103B500000BF0120DEE720684069C0F38000002834
:103B6000D3D00020D6E72DE9F04104460D46174694
:103B70001E46DDF8188038E0701CA8B3FEF7A2FBE3
:103B8000A0EB0800B04200D876BBC5F3074001287F
:103B90000AD120684069A9B20840A9B2884201D17F
:103BA00001200BE0002009E020688069A9B20840EC
:103BB000A9B2884201D1012000E00020B84214D10E
:103BC00000202063202084F83D00002084F83E007F
:103BD000206C40F02000206400BF002084F83C00EE
:103BE00000BF0120BDE8F081FFE7C5F307400128D1
:103BF0000AD120684069A9B20840A9B2884201D11F
:103C000001200BE0002009E020688069A9B208408B
:103C1000A9B2884201D1012000E00020B842ABD017
:103C20000020DFE72DE9F04104460D4616461F4609
:103C300058E020684069C0F38020E8B1206800683F
:103C400040F40070216808606FF48060216848616A
:103C500000202063202084F83D00002084F83E00EE
:103C6000206C40F00400206400BF002084F83C0079
:103C700000BF0120BDE8F081701C90B3FEF722FB6D
:103C8000C01BB04200D866BBC5F3074001280AD16B
:103C900020684069A9B20840A9B2884201D1012038
:103CA0000BE0002009E020688069A9B20840A9B2B1
:103CB000884201D1012000E0002090B9002020635B
:103CC000202084F83D00002084F83E00206C40F065
:103CD0002000206400BF002084F83C0000BF0120C9
:103CE000C8E7FFE7C5F3074001280AD1206840690B
:103CF000A9B20840A9B2884201D101200BE00020FE
:103D000009E020688069A9B20840A9B2884201D1BF
:103D1000012000E0002000288BD00020AAE770B529
:103D200004460D46164625E02046FFF76AFE08B118
:103D3000012070BD681CE8B1FEF7C4FA801BA842E0
:103D400000D8BDB920684069C0F3C01090B9002008
:103D50002063202084F83D00002084F83E00206C81
:103D600040F02000206400BF002084F83C0000BF29
:103D70000120DEE720684069C0F3C0100028D3D0DE
:103D80000020D6E72DE9F041054615B91148BDE8F8
:103D9000F081284604F054F907460F4904F098F9D9
:103DA00006460E4904F048F804460D49204604F042
:103DB0005BF901D80748EAE72146074804F03CF8D8
:103DC00007464FF07E5104F08BFA0646054904F091
:103DD0007FF9DCE7000080BF3333534000F07F45BC
:103DE0000AD7233C0000A040FEB504460025002071
:103DF00000900190029060680090012001900720DF
:103E0000029069462068FDF7A5FD002612E02068B3
:103E1000FDF7EEFF64212068FDF72AFF18B920683E
:103E2000FDF748FE05442068FEF77AF8022001F00D
:103E3000CAF9761C082EEADBC5F3CF00FEBD0000F0
:103E40000EB50020009001900290124812490860BF
:103E5000002111488160017301754FF46021C16137
:103E600000200D49486001210B480161FDF726FE45
:103E700008B1FDF76CFD00200090012001900020AA
:103E8000029069460448FDF765FD08B1FDF75FFD46
:103E90000EBD000000240140D804002000B585B00C
:103EA0000020019002900390049000BF3648806982
:103EB00040F01000344988610846806900F0100025
:103EC000009000BF00BF00BF0846806940F020009E
:103ED00088610846806900F02000009000BF00BFA4
:103EE00000BF0846806940F0040088610846806988
:103EF00000F00400009000BF00BF00BF08468069CA
:103F000040F0080088610846806900F008000090D1
:103F100000BF00BF00224FF400511C48FEF7CCF94F
:103F20000022E0211A48FEF7C7F900224FF4007181
:103F30001848FEF7C1F94FF400500190012002909B
:103F4000002003900220049001A91048FEF71CF8FD
:103F5000E0200190012002900020039002200490B4
:103F600001A90B48FEF710F84FF4007001900120F2
:103F70000290002003900220049001A90548FEF75A
:103F800003F805B000BD0000001002400010014021
:103F900000080140000C014010B50B480B490860B7
:103FA0000B484860002109488160C1604FF480419E
:103FB0000161002141618161C1610162FEF788F9FF
:103FC00008B1FDF7C4FC10BD0054004008050020F6
:103FD000801A060000B587B0002003900490059079
:103FE00006900190029015481549086047204860E6
:103FF0000021134881604FF6FF71C160002101610B
:1040000041618161FFF7AAF908B1FDF7A0FC4FF407
:104010008050039003A90A48FFF734FA08B1FDF76E
:1040200096FC00200190029001A90548FFF754F981
:1040300008B1FDF78CFC07B000BD0000002C01406A
:104040005C05002000B58DB0002009900A900B900F
:104050000C90079008901C216846FCF785FA4FF0F9
:1040600080401F4908604720486000211C4881604B
:1040700040F2E731C160002101618161FFF76EF913
:1040800008B1FDF764FC4FF48050099009A9144869
:10409000FFF7F8F908B1FDF75AFC1148FFF732FBBA
:1040A00008B1FDF754FC00200790089007A90C48C0
:1040B000FFF712F908B1FDF74AFC602000900020DC
:1040C000019002900490002269460548FFF798FA93
:1040D00008B1FDF73CFC0248FFF75AFA0DB000BDED
:1040E000A405002010B50B480B4908604FF416508A
:1040F0004860002108488160C16001610C21416174
:1041000000218161C161FFF79BFB08B1FDF71FFC36
:1041100010BD000000380140EC05002000BFFEE7A4
:1041200000BFFEE708B508490968C9084FF47A726C
:10413000B1FBF2F14143009100BF00BF00994A1E5C
:1041400000920029F9D108BD6C000020F0B50346AB
:104150001446802B01DA402900DBF0BD21480079AC
:1041600020B10CB9012000E000200446012C1CD134
:10417000CD1701EB5575ED1003EBC5151A4E755DA6
:104180000A46CE1701EB5676F610A1EBC6070126BC
:10419000BE403543EEB20846CD1701EB5575ED1024
:1041A00003EBC515104F7E551AE0CD1701EB557581
:1041B000ED1003EBC5150C4E755D0A46CE1701EBED
:1041C0005676F610A1EBC6070126BE40B543084659
:1041D000CE1701EB5676F61003EBC616024FBD550F
:1041E00000BFBAE734000020D800002010B5044614
:1041F0000CB9002000E0FF2002464FF48061024825
:10420000FCF7AAF910BD0000D8000020014A108078
:10421000518070473400002070B5594D00E06D1E8C
:10422000002DFCD144F62063012278215548FEF789
:1042300037F908B1002070BD40F6C41400E0641ED8
:10424000002CFCD1AE220021782001F0EDFF2022CD
:104250000021782001F0E8FF10220021782001F0F1
:10426000E3FFB0220021782001F0DEFFC822002108
:10427000782001F0D9FF00221146782001F0D4FF08
:1042800010220021782001F0CFFF40220021782069
:1042900001F0CAFF81220021782001F0C5FFFF2232
:1042A0000021782001F0C0FFA1220021782001F038
:1042B000BBFFA6220021782001F0B6FFA822002132
:1042C000782001F0B1FF3F220021782001F0ACFFFF
:1042D000A4220021782001F0A7FFD322002178201A
:1042E00001F0A2FF00221146782001F09DFFD522A7
:1042F0000021782001F098FFF0220021782001F0C1
:1043000093FFD9220021782001F08EFF2222002184
:10431000782001F089FFDA220021782001F084FF63
:1043200012220021782001F07FFFDB22002178207B
:1043300001F07AFF20220021782001F075FF8D2204
:104340000021782001F070FF14220021782001F074
:104350006BFFAF220021782001F066FF2E220021A2
:10436000782001F061FF0020FFF740FF00F078F8AF
:1043700000200549088048800120487100BF5AE7A5
:1043800090D0030008050020340000202DE9F04300
:1043900007460C4690462648008821780844802825
:1043A00005DA2348408861780844402802DB002071
:1043B000BDE8F083002530E0A7F12000617800FB24
:1043C0000150616831F81090002622E009FA06F0E9
:1043D00000F4004058B1164A52882A4491B2144A57
:1043E0001288324490B24246FFF7B0FE10E0B8F1B6
:1043F000000F01D1012300E000231A460C4B5B881B
:104400002B4499B20A4B1B88334498B2FFF79EFEA7
:10441000761C2078B042D9D86D1C6078A842CBD8E1
:104420000348008821780844014908803846BFE7DE
:104430003400002070B504460D4616460AE0207888
:1044400032462946FFF7A2FF2178884201D0207822
:1044500070BD641C20780028F1D12078F8E70000B6
:1044600010B500241BE004F1B000C2B20021782096
:1044700001F0DAFE00221146782001F0D5FE10226C
:104480000021782001F0D0FE0648802101FB0402C3
:104490000B464021782001F0DBFE601CC4B2082CE2
:1044A000E1DB10BDD800002000221249124800F0C4
:1044B0007BFE00BF104800F045FE0F48007D68B14C
:1044C0004FF0FF310D48006800F056FF0A48C06801
:1044D0000B4988600948006800F026FF002201218E
:1044E0000848006800F0E2FE4FF4487000F06BFEF0
:1044F000E0E70000D804002034060020440000203B
:10450000500600205C0000208EB000BF4FF0FF324C
:104510003848016803A800F07BFE0398102867D193
:104520004FF0FF313448006800F026FF334805683B
:104530004668D0F80890047B2F48006800F0F4FE2D
:104540000020FFF753FE00210846FFF75FFE2846D4
:1045500003F0D2FB2AA2CDE90001202106A8FBF737
:10456000A5FE01222A4906A8FFF764FF0F210020BB
:10457000FFF74CFE304603F0BFFB26A2CDE9000159
:10458000202106A8FBF792FE0122214906A8FFF789
:1045900051FF1E210020FFF739FE484603F0ACFB17
:1045A00020A2CDE90001202106A8FBF77FFE012211
:1045B000174906A8FFF73EFF30210020FFF726FE2F
:1045C000022C05D10122124919A0FFF733FF0CE09C
:1045D000012C05D101220E4919A0FFF72BFF04E0A1
:1045E00001220B491AA0FFF725FFFFF739FF00BF93
:1045F0008CE700004000002044000020500600200E
:1046000054656D703A20252E31662043000000006D
:104610001C00002048756D3A2020252E316620258B
:104620002500000050504D3A2020252E3066000015
:104630002121204E475559204849454D2021210030
:10464000212043414E482042414F202100000000DC
:10465000414E20544F414E0000BFFDF725F8174949
:104660001748006803F000FE22D2002115480068B8
:1046700003F0FAFD1CD814491148006803F0F4FC5B
:1046800016D212490F48006803F0EEFC10D84FF024
:10469000FF310F48006800F06FFE094800680D49BF
:1046A00008600848006848600948006800F03CFE5F
:1046B0004FF47A7000F087FDCFE70000000048C299
:1046C00008000020100000200000A0420000C842A6
:1046D00044000020500600201FB500BF4FF0FF32FD
:1046E0000F48016801A800F093FD0198102816D129
:1046F0004FF0FF310B48006800F03EFE0A480468A6
:1047000045688668077B0748006800F00DFE334661
:104710002A4621460548009700F0ECFB00BFDDE784
:10472000580000204400002050060020EC05002026
:104730000EB500BF4FF0FF3247480168684600F0F1
:1047400067FD009810287DD14FF0FF314348006885
:1047500000F012FE42480568466887683F480068D6
:1047600000F0E2FD3F49384603F07EFD09D33E49A3
:10477000284603F079FD04D33C49304603F074FD2C
:1047800015D2002220213A48FDF796FD0022402153
:104790003748FDF791FD012280213548FDF78CFD5A
:1047A0004FF4FA70334909684863022437E032490C
:1047B000384603F059FD09D33049284603F054FD2B
:1047C00004D32F49304603F04FFD14D2002220219C
:1047D0002748FDF771FD012240212548FDF76CFDBA
:1047E000002280212248FDF767FD00202149096849
:1047F0004863012413E000201E4909684863012230
:1048000020211B48FDF758FD002240211848FDF7E4
:1048100053FD002280211648FDF74EFD00244FF085
:10482000FF310E48006800F0A7FD0D4804730B48E7
:10483000006800F079FD002201211248006800F0B4
:1048400035FD00E006E0002201210F48006800F07D
:104850002DFD00BF6EE700005C000020440000203A
:104860005006002000002F44000048420000AA42E9
:1048700000080140A40500200000964300000C42FF
:1048800000008C42400000205800002010B5FDF7C9
:10489000D5FF02F0E7FD012801D002F02BF810BD92
:1048A00000B593B0282109A8FBF75EFE142104A8E7
:1048B000FBF75AFE00200090019002900390012027
:1048C000099000040A9000200B9001200D90022016
:1048D0001090C10311914FF4E011129109A8FEF755
:1048E000AFFA08B1FDF733F80F20049002200590CD
:1048F000002006904FF4806007900020089002216D
:1049000004A8FEF779F908B1FDF721F8022000901C
:10491000800302906846FEF7D7F808B1FDF717F854
:1049200013B000BD7047000010B502681C4B9842E0
:1049300008D0B0F1804F05D01A4B984202D01A4BE4
:10494000984203D122F070024B681A43144B9842EC
:1049500008D0B0F1804F05D0124B984202D0124BD4
:10496000984203D122F44072CB681A4322F08003AC
:104970004C6943EA040202608B68C3620B6883627D
:10498000074B984201D10B6903630123436103691B
:1049900003F001031BB1036923F00103036110BDA0
:1049A000002C0140000400400008004030B501F038
:1049B0001F05012404FA05F3046A9C430462046A97
:1049C00001F01F0502FA05F52C43046230BD30B535
:1049D0000C46816821F47F4142EA0325254329439F
:1049E000816030BD0A46816821F0700142F0070302
:1049F000194381607047000030B5026A056A25F0EE
:104A0000010505624368846924F0700424F00304FE
:104A10000D682C4322F002028D682A430D4DA842F6
:104A200006D100BF22F00802CD682A4322F004021A
:104A3000084DA84207D123F4807323F400734D6915
:104A40002B438D692B43436084614D68456302624B
:104A500030BD0000002C014030B5026A056A25F027
:104A6000100505624368846924F4E04424F440742A
:104A70000D6844EA052422F020028D6842EA0512FE
:104A80000E4DA84207D100BF22F08002CD6842EA55
:104A9000051222F04002094DA84209D123F4806397
:104AA00023F400634D6943EA85038D6943EA850376
:104AB000436084614D688563026230BD002C014013
:104AC00030B5026A056A25F4807505624368C469D9
:104AD00024F0700424F003040D682C4322F40072C7
:104AE0008D6842EA05220F4DA84207D100BF22F48B
:104AF0000062CD6842EA052222F48062094DA84294
:104B000009D123F4805323F400534D6943EA05137C
:104B10008D6943EA05134360C4614D68C563026251
:104B200030BD0000002C014030B5036A056A25F451
:104B3000805505624468C26922F4E04222F4407262
:104B40000D6842EA052223F400538D6843EA0533D9
:104B5000064DA84204D124F480444D6944EA8514EA
:104B60004460C2614D680564036230BD002C0140A1
:104B700030B50B461446026A056A25F00105056248
:104B8000816921F0F00141EA041122F00A021A437E
:104B90008161026230BD30B50B461446026A056A77
:104BA00025F010050562816921F4704141EA043164
:104BB00022F0A00242EA03128161026230BD00BF0E
:104BC00000BF02680C3252E8002F22F49071026894
:104BD0000C3242E80013002BF3D100BF00BF00BF2E
:104BE0000268143252E8002F22F0010102681432E8
:104BF00042E80013002BF3D100BF016B01290ED155
:104C000000BF00BF02680C3252E8002F22F01001F2
:104C100002680C3242E80013002BF3D100BF2021C0
:104C200080F84210002101637047000070B504460F
:104C30002168096921F44051E26811432268116139
:104C40002269A1681143626941EA02052168C968C5
:104C500041F20C62914329432268D160216849697D
:104C600021F44071A2691143226851612D4A2168E3
:104C7000914202D1FEF79CF801E0FEF789F800EBC3
:104C8000C00101EB001162689200B1FBF2F100EB90
:104C9000C00202EB001263689B00B2FBF3F26423D4
:104CA000B2FBF3F202EBC20303EB0212A1EB8201AF
:104CB000322202EB01116422B1FBF2F101F0F001AA
:104CC00000EBC00202EB001263689B00B2FBF3F240
:104CD0006423B2FBF3F201EB021200EBC00101EB23
:104CE000001163689B00B1FBF3F100EBC00303EB21
:104CF00000136668B600B3FBF6F36426B3FBF6F365
:104D000003EBC30606EB0313A1EB8301322303EB92
:104D100001116423B1FBF3F101F00F01114422688A
:104D2000916070BD003801402DE9F84304460D46FE
:104D300017469846089E31E0701C70B3FDF7C2FA22
:104D4000A0EB0800B04200D816B90320BDE8F883F4
:104D50002068C06800F00400F8B1802D1ED0402DFE
:104D60001CD020680068C0F3C000B0B100BF0020B4
:104D7000009020680068009020684068009000BFA4
:104D800000BF2046FFF71BFF0820606400BF002023
:104D900084F8400000BF0120D8E7FFE720680068E2
:104DA0002840A84201D1012000E00020B842C3D031
:104DB0000020CBE700BFFEE7490050EAC12018BF42
:104DC00004204A0D18BF40F0010040F2FF72B2EB20
:104DD000515F08BF40F00200012808BF052070475E
:104DE0004100080218BF04200A0E18BF40F001005D
:104DF0004FF07F4232EA010108BF40F00200012873
:104E000008BF05207047000002480068C0F3022078
:104E1000704700000CED00E010B5002804DB0A0725
:104E2000130E054A135406E00A07140E034A00F055
:104E30000F031B1FD45410BD00E400E018ED00E088
:104E400000214FF07E5002F0F7BF02F081BF002139
:104E5000084602F0F1BF61214FF0E04003F0E9BAEB
:104E60006FF05E01080703F0E4BA30380A2801D277
:104E700001207047002070472DE9F04705460027C4
:104E80000024002617E02846FEF7AEFF814648467C
:104E9000FEF778FF80460021404603F0E5F906D290
:104EA0004146384602F054FF0746601C84B2322067
:104EB00000F089F9761C142EE5DB74B1204603F06E
:104EC000BFF880464146384602F0B6FF0646044920
:104ED000304602F0B1FF286100BFBDE8F087000056
:104EE000AE471D4100BFEFF3058008B101207047B8
:104EF0000020FCE72DE9FF4FA3B00C4691469A46EF
:104F0000DDF8C0B0504602F0F7FE05460E464846B2
:104F100002F0F2FE07468846204602F0EDFE024609
:104F20000B46CDE9036BCDE900780295CDE906018A
:104F300007A109A8FBF7A4F90890089882B2642396
:104F400009A92398FEF7FCFC27B0BDE8F08F00000C
:104F500074656D703A252E32663B68756D3A252E64
:104F600032663B70706D3A252E32663B74743A257A
:104F7000640D0A00B2B0FDF76DFCFFF791FCFEF77F
:104F80008DFFFEF75DFFFFF707F8FFF75BF8FFF710
:104F9000A9F8FFF71FF83C48FEF73EFAFFF73CF987
:104FA00000213A48FEF7E2FB00203090319030A813
:104FB00000F0ACF936490860364890E80E00C06849
:104FC000CDE92D232C912F9000212CA800F00CF975
:104FD000314908602F4B10330FCBCDE92A23CDE99F
:104FE0002801002128A800F0FFF82C490860294B6F
:104FF00020330FCBCDE92623CDE92401002124A8BD
:1050000000F0F2F8264908601C22224930311DA820
:10501000FBF770FA00211DA800F0E2F921490860B1
:105020001C221C494C3116A8FBF764FA002116A873
:1050300000F0D6F91C4908601C22164968310FA8F7
:10504000FBF758FA00210FA800F0CAF917490860C9
:105050001C221049843108A8FBF74CFA002108A84B
:1050600000F0BEF9124908601C220A49A03101A8CB
:10507000FBF740FA002101A800F0B2F90D490860E1
:1050800000F0ADF800BFFEE75C050020A40500209D
:1050900044000020C4AC000840000020580000205C
:1050A0005C0000203C000020480000204C00002054
:1050B000500000205400002001460020842901D027
:1050C000CA1C1044704700000021054A1268516252
:1050D00000BF03490968496A8142FAD3704700005A
:1050E0005C0500202DE9F04104460021206902F012
:1050F000BBFF02D81048BDE8F0812046FEF774FEE1
:10510000054625812846FEF73DFE0646002130462D
:1051100002F0AAFF01D80848EDE73046216902F005
:105120008BFE07460549384600F08AF98046044957
:1051300002F0CEFFDFE70000000080BFCDCC0CC046
:1051400000002F452DE9F0410446207D70B9FDF7A0
:10515000B9F8A169401A42F21071884204D320467E
:10516000FFF78AFE01202075BDE8F0812046FFF799
:10517000B9FF05460021284603F076F80DD22946EE
:10518000074802F0A5FF06460648E16802F0A0FFC6
:105190000746314602F0DCFDE06000BFE4E70000B6
:1051A0009A99193FCDCCCC3E70B504460E461546B3
:1051B0002660656000202081E06020612075FDF799
:1051C00081F8A06170BD70B5044625460DB1294631
:1051D00000E00121084601F09DF9002070BD10B5E6
:1051E00001F066FA002010BDF8B504460D46A0682F
:1051F00040B1E06830B10020009094E80F0001F069
:10520000E6FBF8BD0022D4E9000101F0B3FBF8E7AA
:105210002DE9FF4107460D461446029500200190F6
:105220003DB9802000909DE8070087E80700BDE8B1
:10523000FF81002003900026601C08B9761E03E061
:1052400014B1264606B90126FFF74CFEB0B103AAF9
:1052500001A9284601F0EEFE012802D1102000909D
:1052600001E0002000900398B8B14FF080500E4943
:105270000860BFF34F8FBFF36F8F0EE0324601A976
:10528000284601F023FE012802D11020009004E0FE
:105290000EB9002000E0402000909DE8070087E85C
:1052A000070000BFC3E7000004ED00E077B581B060
:1052B0000646144600200090254605B90125FFF753
:1052C00011FEA8B100236A4602A9304601F010FD84
:1052D000012802D0FF2004B070BD009890B14FF0BB
:1052E000805009490860BFF34F8FBFF36F8F09E00B
:1052F00000232A4602A9304601F026FC012801D0ED
:10530000FF20E8E70020E6E704ED00E010B50446E2
:10531000606820B10120616801F017FB10BD012019
:1053200001F002FBFAE7000038B504460025002032
:105330000090FFF7D7FD90B16946204601F056FD79
:10534000012801D0FF2038BD009888B14FF080506F
:1053500008490860BFF34F8FBFF36F8F08E0002349
:105360001A461946204601F0EFFB012800D0FF2520
:105370002846E8E704ED00E0F8B506460C460020B4
:1053800000900EB98020F8BD0025601C08B96D1E84
:1053900003E014B1254605B90125FFF7A3FD98B137
:1053A0006A460021304601F045FE012801D0FF2069
:1053B000E9E7009880B14FF0805008490860BFF3DA
:1053C0004F8FBFF36F8F07E02946304601F098FEFC
:1053D000012801D0FF20D6E70020D4E704ED00E04B
:1053E0007FB504460D46606998B1A06988B1B4F9EB
:1053F0000800FFF761FE0646D4E90510CDE900611B
:1054000002902B462269D4E9001001F0CDFF0390F1
:1054100013E0B4F90800FFF74FFE064603A8CDE9F4
:105420000060238A9AB22B46D4E9001001F08AFF6B
:10543000012802D0002004B070BD0398FBE70000F3
:105440002DE9F04D0E460023A0F5000C4FF0007141
:10545000354684B002464FF07E5401EB45014FF0D3
:105460007F48BCF1FE4F80F09F81B1F1804FC0F0CA
:10547000DB81FE490144B1F5005F40F2A78200F5EF
:105480008021C90C01F00F07C1F307117F39A2EB8E
:10549000C15501EB030B384602F0BAFD6FF0030172
:1054A00002F0C7FF4FF07E5102F052FC014602901D
:1054B000284602F015FF01902846029902F048FCA8
:1054C00000F5006A6FF30B0A00905146029802F053
:1054D00007FF294602F03CFC02904FF07E500099F5
:1054E00002F0AAFC01460090019802F0F1FD00F5DF
:1054F00000656FF30B052846029902F0E9FD029062
:105500005146284602F0E4FD019902F0DEFE0299C0
:1055100002F0E6FE009902F0DBFD0146019028460C
:1055200002F016FC0146029002F0D2FD8246D049FC
:1055300002F0CEFDCF4902F00BFC514602F0C8FD4F
:1055400082460021284602F074FF009051460298DE
:1055500002F0BEFD05460021019802F06AFF2946CF
:1055600002F0F6FB82460146009802F0F1FB00F5DE
:1055700000656FF30B052946009802F0B1FE514615
:1055800002F0E6FB8246BC49284602F0A1FD0090ED
:10559000BA49504602F09CFD8246B949284602F0BD
:1055A00097FD514602F0D4FB82460146009802F076
:1055B000CFFB00F500656FF30B052946009802F05C
:1055C0008FFE514602F0C4FB8246AE48784450F844
:1055D000371000EBC700019147684FEA0B1002F04B
:1055E00017FD00903946504602F0B2FB294602F002
:1055F000AFFB019902F0ACFB009902F0A9FB00F5AA
:10560000006B6FF30B0B5846009902F069FE01998D
:1056100002F066FE294602F063FE394602F060FEA3
:10562000514602F052FE06F5006782466FF30B0703
:105630003946304602F054FE0021009008464FF0F3
:10564000000000F00C063946584602F041FD0546C0
:1056500020F00040B0F18B4F0ADDB8EB400F07D3CC
:105660004FF08B4060F31E052F464FF0000A1FE0FD
:105670003846009902F06CFB514602F029FD0746BE
:105680005846009902F024FD394602F061FB82463B
:105690000146284602F05CFB00F500676FF30B073C
:1056A0003946284602F01CFE514602F051FB824664
:1056B00031460C204FF000005146384602F048FBBE
:1056C00002F07CFC0646051102F0A2FC394602F00D
:1056D000FCFD514602F03CFB07466B4902F0F8FC2A
:1056E0006A4902F035FB394602F0F2FC684902F0E3
:1056F0002FFB394602F0ECFC0146664806F00F0627
:10570000784450F8260002F0E3FC6349794451F8EC
:10571000261002F01DFB6149794451F8261002F071
:1057200017FB05F17D01FC2908D2294602F081FE14
:1057300004B02146BDE8F04D02F0CABC05F1BF013E
:10574000B1F5BF7F16D8294602F073FE214602F05C
:10575000BFFC0546B8EB450F1AD068000CD02846B0
:10576000FFF73EFB042808BFFFF77AFB284604B08A
:10577000BDE8F08D002D0BDA0220FAF724FFFFF7C9
:105780006FFB0146204604B061F31E00BDE8F08DBA
:105790000220FAF718FFFFF75EFB0146204604B02F
:1057A00061F31E00BDE8F08DB1F1804F3CD300BF26
:1057B00000F1FF41B1F1FE4F21D200BF20F00042C5
:1057C000C5F3C75110467F290DDB9729BFF651AEAF
:1057D000C1F196014FF0010C0CFA01F1A1F1010C9D
:1057E0001CEA050F07D00120FAF7EDFE04B0BDE872
:1057F000F04DFFF72CBB294218BF294C39E6410078
:105800001CBF4FF08071B1EB400F09D91B2102F092
:1058100010FE02466FF01A0310F0004FCED128E6BA
:10582000BCF1FE4F18D224E6B1F1007F0ED336F062
:10583000004105D006F0004141F0FC552E46B7E787
:10584000410018BFB8EB400F78D8B1E7B1F1807FC5
:1058500038BFA5F50006ABD320F000416FF0FF4C38
:10586000104C01EB0C03A3422FD31DE0001080C0AD
:105870007EE24C3EABAAAA3E00B038423BAA384278
:10588000D49AB8BBEC570000FC596337C9FF753A8E
:105890001872313DB85700006C57000020570000C7
:1058A000000080BFFFFF3F0025F000439C44A4455B
:1058B0000BD3B0F17E5F18BF5FEA450C3ED0B1F16B
:1058C000FF4F98BFB3F1FF4F05D904B03146BDE893
:1058D000F04DFFF7BABAB0F1FF4F0FD0C5F3C75183
:1058E0007F2909DB972911DAC1F19601012202FA19
:1058F00001F14A1E2A4205D0002108E015F0004FB0
:1059000055D128E0294218BF012100D1022110F50C
:10591000000F14D020B3B0F1004F27D010F1814F09
:105920004ED04FF0FE41B1EB400F94BF012000205C
:10593000012101EBE571884239D10CE040E015F01E
:10594000004F02D0012936D031E0012902BF3F4883
:1059500004B0BDE8F08D4FF0FF4004B0BDE8F08D1D
:1059600015F000400ED104B0BDE8F08DB5F1FF4F49
:105970001DD015F5000F05D015F0004F14D009B15A
:10598000012907D00220FAF71EFE04B0BDE8F04D51
:10599000FFF756BA0220FAF716FEFFF751FA04B0E5
:1059A00080F00040BDE8F08D09B1012903D004B0BA
:1059B0000020BDE8F08D04B04FF00040BDE8F08D50
:1059C00004B04FF07E50BDE8F08D00BF4FF07E5127
:1059D00002F086FC05466FF0010102F02AFD1C4929
:1059E00002F073FC294602F073FB4FF07C5102F089
:1059F0006CFC07462946084602F06AFB80F000402E
:105A0000394602F065FB82461249284602F060FBE7
:105A100007461149504602F05BFB82460F49284673
:105A200002F056FB514602F093F90546014638460E
:105A300002F08EF900F5006B6FF30B0B59463846F8
:105A400002F04EFC294602F083F9ECE5000080FFED
:105A5000ABAAAA3E00B0B8413BAAB841D49A38BB21
:105A60002DE9F04105460E461C4807681C480068B1
:105A7000001D00F00FFC50B91948006890F82C1078
:105A80000120884017490968814316480160681C55
:105A900038B936B112480168091D134800F044FCBA
:105AA0001AE07C190E4800684460BC4207D20C48DA
:105AB0000168091D0D48006800F01CFC0CE0084856
:105AC0000168091D0A48006800F014FC09480068D4
:105AD000844201D207480460BDE8F08184000020C0
